:020000040800F2
:10000000107200206D4A0008A1430008A3430008B5
:10001000A5430008A7430008A9430008000000000A
:10002000000000000000000000000000AB430008DA
:10003000AD43000800000000AF430008694300081A
:10004000994A00089D4A0008A14A0008A54A0008EC
:10005000A94A0008AD4A0008B14A0008B54A00089C
:10006000B94A0008B1430008BD4A0008C14A000867
:10007000C54A0008C94A0008BB440008CD4A000828
:10008000D14A0008D54A0008D94A0008DD4A0008CC
:10009000E14A0008E54A0008E94A0008ED4A00087C
:1000A000F14A0008F54A0008F94A0008FD4A00082C
:1000B000E1430008014B0008054B0008094B00080C
:1000C0000D4B0008114B0008154B0008194B000898
:1000D0001D4B0008214B0008254B0008294B000848
:1000E000DF4300082D4B0008314B0008354B00085A
:1000F000394B00083D4B0008414B0008794400088B
:10010000454B0008494B00084D4B0008514B000877
:10011000554B0008594B00085D4B0008614B000827
:10012000654B0008694B00086D4B0008714B0008D7
:10013000754B0008794B00087D4B0008814B000887
:10014000854B0008894B00088D4B0008734400085C
:10015000914B0008954B0008994B00089D4B0008F7
:10016000A14B0008A54B0008A94B0008AD4B0008A7
:10017000B14B0008B54B0008B94B0008BD4B000857
:10018000C14B0008C54B000870B582B00446002082
:10019000DFF8085700902E46032000F0E0FBE068EF
:1001A00001690091761E12D00099C90FF4D0009910
:1001B00041F00101009100990161016900916D1EFA
:1001C00002D00099C907F8D4032000F0C8FB002032
:1001D00076BD30B5C4787CB900EB8200DB1C5D10C5
:1001E000D0F8D00003EB957303E051F8042B0260C4
:1001F000641CB4EBA30FF8D3002030BD10B5D21CA3
:100200005410D0F8D000002302EB947203E004688D
:1002100041F8044B5B1CB3EBA20FF8D3084610BDAA
:1002200030B50022C27001238370402383800129EE
:100230000CD1C1724FF0A04208210170042141701D
:100240004FF4A071C180022101720AE049B9C17264
:100250000C210170062141704FF4A061DFF84026A7
:10026000C180C26002F50061016100210AE000EB7B
:10027000810302EB411404F510659D6104F53064BF
:100280005C65491C43789942F1D302F58061416174
:1002900002F58861C0F8CC10002108E002EB4113A0
:1002A00000EB810403F5A063C4F89030491C037887
:1002B0009942F3D3002108E002EB013300EB810403
:1002C00003F58053C4F8D030491C03789942F3D326
:1002D00002F56061C0F80C11002030BD10B5044675
:1002E000217AE068012916D1816B627A21F480318C
:1002F0000AB141F480118163DFF8A825C16811407B
:10030000C1602046FFF740FFE078012815D1E16881
:100310002A20886011E0C16841F04001C160204698
:10032000FFF732FF607A4FF4341108B14FF47411C3
:10033000E0688163142000F01CFBE078012806D1FE
:10034000E068816821F01E0141F02A0181600020EF
:1003500010BDC068816841F0010103E0C068816898
:100360004908490081600020704780B50022009252
:10037000009A42F020020092009A61F38A120092E1
:1003800000F021F802690092491E1EBF009AC2F3D4
:100390004012002AF6D111E080B5002100910099A9
:1003A00041F01001009100F00EF802690092491E20
:1003B0001EBF009AC2F30012002AF6D1032000F0FB
:1003C000CEFA002002BDC06800990161DFF8CC14AC
:1003D000704780B5C068C26822F0C042012908BFDA
:1003E00042F0005202D009B942F08042C26032208D
:1003F00000F0BFFA002002BDC068406900F00100B3
:10040000704780B5FFF7F8FF012801D0012002BD39
:10041000002002BDC06841698069084070470069DA
:100420000268920801F0030141EA8201016070470D
:10043000F8B504460020D4F80C11086004F10C054E
:10044000661C6868016821F4C0510160B07A012817
:1004500019D103212046FFF7E2FFE16880204862BE
:10046000E168DFF844048862E168DFF84004C1F81D
:100470000401E168DFF83804C1F808014FF4A07006
:10048000E168C1F80C0110212046FFF76EFF2046FD
:10049000FFF782FF696800200861002269684861EF
:1004A0004FF0FF306968886100206968C8614FF0CB
:1004B0009041FF2008E03B600023DCF818703B61AE
:1004C000521CDCF81830986063789A4208D204EB2A
:1004D000820CDCF818703B68DB0FECD00B46EAE7C7
:1004E000002208E03B600023DCF854703B61521CA2
:1004F000DCF85430986063789A4208D204EB820C9E
:10050000DCF854703B68DB0FECD00B46EAE7686818
:10051000016941F480710161B078012803D16968F3
:10052000DFF890030863204600F002F80020F2BDD7
:1005300010B5C268E049002393614FF0FF346FF0BB
:100540008043536154605361DC4B9361C07800B9C0
:10055000DB499069884308439061002010BD006921
:100560008068400810F0030002D0022802D003E0A7
:1005700003207047012070470220704701698A6894
:1005800080690368DB0ADB02C2F34102022A08BF6A
:1005900043F003030360486840F480704860002023
:1005A000704730B54A780B78012A00EB830205D1F9
:1005B0000124926904FA03F39BB204E00124526D12
:1005C00004FA03F31B041468C4F3C035A5B9BD4D88
:1005D0002C408D686D0554EA5554CD78C988AD041A
:1005E00005F4402589052C4301F07071214341F049
:1005F000805141F4004111600069C1691943C16132
:10060000002030BD10B50A78497800EB8203012440
:1006100004FA02F2012907BF996992B2596D1204D6
:1006200000230B600069C1699143C161002010BDC6
:10063000F8B50A784C6900EB82034A78012A4ED15A
:100640009D692A682D6905F0604614B946F40024B6
:1006500010E08D6867032C19641EB4FBF5F49A4D05
:1006600005EAC44456EA5736CD783443012D08BF15
:1006700065F35E749B691C61C378012B06D10B780E
:100680000C6900EB83039B695C610CE0CB78012B68
:100690000CD04B693BB103695C6B91F9006001259B
:1006A000B5402C435C63CB78012B07D103699B6871
:1006B000DB0554BF42F0005242F080520B7800EB51
:1006C000830342F004429B691A60CA78012A41D12F
:1006D0004B690A78C9689BB2FFF77BFD3AE05D6D14
:1006E0002A682E698D683CB906F060446D0354EAAF
:1006F000553444F4002411E02C19641EB4FBF5F4C5
:10070000714F6FF3DC4607EAC4443443C4F3C9466F
:10071000754365F3120465036D0B4D615B6D1C61E0
:10072000C378012B05D10B780C6900EB83035B6D5B
:100730005C61CB78012B06D14B79002B14BF42F0C2
:10074000005242F08052097800EB810042F00441EF
:10075000406D01600020F2BDF0B54A784C69012A75
:100760002BD1826913681569ED09ED0144B18E68DA
:10077000A6423ABF4E6106F07F0404F07F04254391
:1007800045F400251561C478012C05D10C780D695C
:1007900000EB8404A469656143F004431360C278EC
:1007A0006ABB4A695AB30069426B91F90010012390
:1007B00003FA01F11143416321E00A7800EB82035F
:1007C0005D6D2A682D698E68ED0906F07F0747EA9E
:1007D000C51545F4002504B14E615B6D1D61C378FC
:1007E000012B05D10B780C6900EB83035B6D5C6119
:1007F000097800EB810042F00441406D0160002067
:10080000F0BD4A780978012A00EB810006D18069A1
:100810000168CA0F04D041F0804101E0406D0168D9
:1008200041F400110160002070474A78012A0A78DB
:1008300000EB82000CBF8069406D0268C97822F429
:100840000012032914BF022942F0805202600020E6
:10085000704700698169C0690840000C704700EB6F
:100860008101496D896800694069084070470069E5
:100870008169C069084080B27047426D13491161B7
:10088000C178012908D1426D00F2CC515161406D0F
:1008900001684FF08021016070470000410D0300A6
:1008A00000000440BFFFB5FF80002000A000200032
:1008B000C00080000301810008383C00000800806F
:1008C00018383C0000F833FC0000F81F18000860DE
:1008D0001CB50121012000F0A9F84FF4C050009090
:1008E00003208DF8050002208DF804000020ADF8EB
:1008F000060000A90E4C204600F0E4F80A220B2165
:10090000204600F022F90A220C21204600F01DF9B1
:1009100001214FF4804000F0ADF80121802000F06B
:100920008EF801214FF0805000F09BF813BD0000BD
:100930000000024080B54FF4C06000F019F9432078
:100940008DF8000001208DF8010000208DF80200D4
:1009500001208DF8030000A800F00FF901BD7822F6
:10096000504307220021B0FBF2F0491C8842FCD220
:1009700070474FF47A714843F1E750F8041B61B1B6
:1009800050F8042BD30744BFA9F101039A180023A0
:1009900042F8043B091FFAD1EFE770473F4A13685A
:1009A0005B0150EA531008431060704710B53A4994
:1009B0004A6802F00C02042A02D0082A02D019E088
:1009C000374A18E00A680B68C2F3805203F03F030D
:1009D000002A14BF324A334AB2FBF3F20B68C3F366
:1009E00088135A430B68C3F301435B1C5B00B2FBE3
:1009F000F3F200E02B4A02604B682B4A0468C3F311
:100A000003139B5C24FA03F343604B684468C3F30D
:100A100082239B5C24FA03F3836049684368C1F333
:100A20004231895C23FA01F1C16010BD1F4A0029DF
:100A3000116814BF084321EA0000106070471C4A87
:100A40000029116814BF084321EA000010607047B4
:100A5000184A0029116814BF084321EA00001060F9
:100A60007047154A0029116814BF084321EA0000A5
:100A700010607047114A0029116814BF084321EA29
:100A80000000106070470E4A0029116814BF084327
:100A900021EA000010607047043802400838024024
:100AA000001BB7000024F400BC02002030380240D4
:100AB000343802403838024040380240443802405E
:100AC00020380240F0B5002201230C6893401C40FE
:100AD0009C422BD154000325A5400668ED432E40CF
:100AE000066006680F79A7403E4306600E79012E26
:100AF00018BF022E11D186682E40866086684F7915
:100B0000A7403E438660466826EA03034360436885
:100B10008E799640B6B233434360C3682B40C360BE
:100B2000C368CD7905FA04F42343C360521C102A2C
:100B3000CAD3F0BD00690022084218BF0122104646
:100B40007047018370474183704710B5CB0800EBB5
:100B5000830001F007018900036A0F248C40A3433E
:100B6000036202FA01F1036A1943016210BD000039
:100B70001849084318490860704770B50378C4786D
:100B80001A460121E4B1144B1B68447803F4E06376
:100B9000C3F5E0631B0AC3F10405AC4085780F265A
:100BA00026FA03F32B4023430C4C1B01135500780A
:100BB00000F01F0291400A4A400942F8201070BD1F
:100BC00003F01F0001FA00F00649520941F8220023
:100BD00070BD00000000FA050CED00E000E400E04C
:100BE00000E100E080E100E030B599B00121012092
:100BF000FFF72EFF4FF6B37000F0A4F8DFF80446BD
:100C00002046FFF75FFF4FF6FC7000F09BF8DFF81F
:100C1000F85500F0FAF80C22002100F009F90C2236
:100C2000012100F005F90C22042100F001F90C2249
:100C3000052100F0FDF80C22072100F0F9F80C2244
:100C4000082100F0F5F80C2200F0F1F80C220A213E
:100C500000F0EEF80C220B2100F0EAF80C2211460D
:100C600000F0E6F80C220D2100F0E2F80C220E2133
:100C700000F0DEF80C220F2100F0DAF80C2202213D
:100C800000F05DF80C22032100F059F80C22042139
:100C900000F055F80C22052100F051F80C22062135
:100CA00000F04DF80C22072100F049F80C22082131
:100CB00000F045F80C22092100F041F80C220A212D
:100CC00000F03DF80C220B2100F039F80C221146FF
:100CD00000F035F80C220D2100F031F80C220E2125
:100CE00000F02DF80C220F2100F029F804200290CA
:100CF00003900490012005900420069000200790A6
:100D0000089009900A900B9010200C9000200D90F4
:100D10000F900E90109011904FF480501290002080
:100D200013901490159002A81690179009A800F03F
:100D30008FFA0121002000F0F5FA19B030BD2846E5
:100D4000FFF703BF009002208DF8040000208DF80B
:100D5000060003208DF8050001208DF8070000A98A
:100D6000704730B583B0FFF73FFF4FF40070FFF7D7
:100D7000E9FFDFF898442046FFF7A4FE4FF040510A
:100D80000020FFF70BFE002200F051F80420009035
:100D90000120FFF7D9FFDFF86C5400F036F8082087
:100DA00000F036F800F031F84020009000A9002053
:100DB0008DF804008DF8060003208DF80500022050
:100DC0008DF8070000F021F84FF4004000F020F803
:100DD0002046FFF777FE4FF400412046FFF7B1FEB3
:100DE00004212846FFF7AFFE08212846FFF7ABFE97
:100DF000DFF81C040021C171C173DFF818140978F1
:100E00002B2918BF0021017437BD2846FFF75ABEB1
:100E1000009000A901208DF8040000208DF8060044
:100E200003208DF8050001208DF807007047092187
:100E30002046FFF78ABE2DE9F041DFF8DC5395F834
:100E40008900002400283CD0DFF8B86340213046F8
:100E5000FFF770FEA8B30027DFF8C083780400F125
:100E6000C240008890B1A5F8860085F88470012002
:100E700085F8850005EB8400D5F884104160641C7A
:100E8000E4B220214046FFF75EFE03E02021404609
:100E9000FFF757FE7F1C202FE0DB04213046FFF7D1
:100EA00052FE95F8880085F88B00A870EC70DFF88A
:100EB000700300882880002085F88900012085F8CB
:100EC0008A00BDE8F0810278D2090A7090F900200A
:100ED0005206121602EBD27252104A7090F901209B
:100EE0005206121602EBD27252108A70037982787F
:100EF00003F0F00303EB022212B2D31002EB1372E1
:100F00001211A1F80320C278007900F00F0000014F
:100F100000EB022000B2C21000EB12700011A1F829
:100F200005000120C87170472DE9F04FB84D42000F
:100F300005EBC009BB48BC490068DFF8F0A2DFF848
:100F4000F08283B08423019013FB021499F901000D
:100F50003C30792802D30020E07036E0002631E0F2
:100F600004EB8607F88800F0FBF98346B9F9030023
:100F700000F0ECF9414600F003FA594600F06CFA33
:100F800000F0ACFA00F0ECF98346514600F064FA48
:100F9000009099F9010000F0D9F9009900F0F0F9FA
:100FA000A44900F0ADFA0146584600F027FB00F0D6
:100FB00095FA297C21B1019901EBD171A0EB610077
:100FC000F880761CE0788642CADB99F902003C3052
:100FD000792803D3002084F8870039E0002633E025
:100FE00004EB8607B7F88A0000F0BAF98346B9F92E
:100FF000050000F0ABF9414600F0C2F9594600F097
:101000002BFA00F06BFA00F0ABF98346514600F082
:1010100023FA009099F9020000F098F9009900F085
:10102000AFF9844900F06CFA0146584600F0E6FA40
:1010300000F054FA297C21B1019901EBD171A0EBA8
:101040006100A7F88A00761C94F887008642C7DB07
:10105000BDE8F78F80B520217048FFF772FD0421AD
:101060006848FFF76EFD00BF00BF00BF00BF00BFB4
:1010700000BF00BF00BF08216248FFF762FD00BF4C
:1010800000BF00BF00BF08215E48FFF75CFD0120E4
:10109000694908700120694908706948007800288A
:1010A0001CD168480078002818D05948B0F90B00C6
:1010B000574991F90910B0EB41005549A1F80B00CF
:1010C0005348B0F90D00524991F90A10B0EB4100B4
:1010D0004F49A1F80D0001204D49C87301BD000022
:1010E00080B520214D48FFF72CFD04214548FFF72E
:1010F00028FD00BF00BF00BF00BF00BF00BF00BF92
:1011000000BF08213F48FFF71CFD00BF00BF00BF24
:1011100000BF08213B48FFF716FD02204649087032
:1011200001204649087001BD80B520213B48FFF7EA
:1011300008FD04213348FFF704FD00BF00BF00BFD6
:1011400000BF00BF00BF00BF00BF08212D48FFF750
:10115000F8FC00BF00BF00BF00BF08212948FFF70F
:10116000F2FC0320344908700120344908703648E5
:101170000078002821D13548007800281DD0284863
:101180000088401C264908802148B0F90300204906
:1011900091F90110B0EB41001D49A1F803001C4872
:1011A000B0F905001A4991F90210B0EB4100184955
:1011B000A1F8050001201649C87101BD80B52021A4
:1011C0001648FFF7BEFC04210E48FFF7BAFC00BF2B
:1011D00000BF00BF00BF00BF00BF00BF00BF0821AD
:1011E0000848FFF7AEFC00BF00BF00BF00BF0821EA
:1011F0000448FFF7A8FC04200F49087001200F499C
:10120000087001BD000C02400010024000080240BE
:10121000B451002000000408F04F002000040240F8
:10122000F8510020D0020020D8480020008054C58A
:10123000ABAABA3F00606A4778500020795000207E
:101240007F500020815000207E50002080500020E0
:1012500010B50268DFF8EC404FF0204151F8223021
:1012600023404468234384682343C46823430469B8
:1012700023434469234384692343C4692343046AA1
:101280002343446A2343846A2343C46A2343046B8D
:10129000234341F822308268082A06D1026851F8B7
:1012A000223043F0400341F8223001688900A1F167
:1012B000C0414B68426B146803F0404323435468B9
:1012C00043EA0413946843EA0423D46843EA0443DA
:1012D000146943EA04535469926943EA04631A4364
:1012E0004A60C36A0168164AB3F5804F15D152F8B7
:1012F0002130806B046803F040432343446843EA91
:101300000413846843EA0423046943EA04534469E8
:10131000806943EA0463184301E06FF0704042F8CB
:10132000210010BD4FF02042002952F8201012BFBA
:1013300041F00101044B194042F8201070470000B1
:10134000040100A08000F7FFFEFF0F00002840F11D
:101350000980F446404200F005F850F00040604734
:10136000002800BF0AD0B0FA80F18840D1F19D0179
:10137000C905020672F1004241EB102070470000DF
:10138000FF2212EAD05C1DBF12EAD153944593426A
:101390002BE09C44D30780EA01021A4043EA002074
:1013A00043EA0121A1FB0030410038BF40007CF13D
:1013B0007F010BDBFE294ADA5B0842EAC15153EA9E
:1013C000006373F1004C51EB10207047D1F1080C11
:1013D000DCF120012FDB5B0810FA01F10B4373F104
:1013E000004120FA0CF05041704794451CBF02EABE
:1013F000D153934280EA010202F000421DD0400026
:1014000019D0490017D05BB9634514D00902B1FA6D
:1014100081F39940BCEB030CC00140F00040C1E7F0
:101420000002B0FA80FC10FA0CF0B3EB0C0CC9010E
:1014300041F00041B6E71000704740000AD0490073
:1014400008D010F1807F94BF11F1807F02E042F05C
:10145000FF407047D043704790EA010F44BF81F0CE
:10146000004100F0D3B800BF421A3CBF801A89186F
:101470004FF0004CC0F3C752FF2A24D0C1F3C7532A
:1014800013B3D21AD2F1190327DD4CEA01214CFA29
:1014900003F321EA0303D140C20D4CEA00204018B7
:1014A00034BF20EA0C004CEA5000D20553EA006336
:1014B00073EB0C0C52EB1020420012F1807F38BF0E
:1014C0007047C00DC0057047490212BF9A4200EB39
:1014D0005120F8E7D2F11703D9D5704740000DD25B
:1014E000010E7F390AD4D1F11F0104D4C00140F0AC
:1014F0000040C84070477FF00000704700207047F0
:1015000010B5FF2313EAD0541DBF13EAD1529C42F9
:101510009A4239E0A41ADA0780EA0103134042EA4A
:10152000012142EA0020421A3CBF641E01EB420244
:10153000090AB2FBF1FE01FB1E221202B2FBF1F01E
:1015400001FB10226EF30F201202B2FBF1FE4EEAF5
:1015500000207F3406DDFE2C24DA53EA500050EBE5
:10156000C45010BDD4F1020401FB1E2240F0807172
:10157000192C1DDC21FA04F0C4F12004A140114310
:1015800071F10042584110BD9C421ABF03EAD1528A
:101590009A420FE080EA010E0EF00043400004D0B2
:1015A000490016D143F0FF4010BD490008BFD343A6
:1015B000180010BD9C4205D1D21AF7D001F00041AD
:1015C000484010BD4A0212BF0846484000F00040A3
:1015D00010BD4AB90902B1FA81F2914044B1A41890
:1015E000C00140F000409EE7C90141F00041524275
:1015F0000002B0FA80F4A040141B94E790EA010FB7
:1016000044BF81F00041FFF72FBF00BF431A4FF0E6
:1016100000423EBF5340C01AC91800BFD3095FEA59
:10162000D05C13EB400F34BFB3EB410F40E07CEBD9
:10163000D1530CD342EA012122D8D1EB402009D367
:10164000400A28BF5FEA500140EBCC507047401A77
:1016500015D04002B0FA80F2521C9040400A4FEA86
:101660003C23B3EB026384BF00EB730007E040F45C
:1016700000001A16DB07C2F10102D0401843704780
:10168000182BFCDC31FA03F202FA03F3591A38BFC3
:1016900042F00102D2EB40203CBF4000ACF1010C13
:1016A0005FEACC5CC20572F100414CEB5020704700
:1016B00013EB400F0FD24B0009D0ACEBD153022BF0
:1016C00003DB4902172BDDDD70479143401A4300CD
:1016D000D5D10020704713EB410FD0D36FF000003D
:1016E000704700002DE9F04782B004464FF0000932
:1016F000FEF787FE002804D02046FEF78BFE5FEA47
:10170000000800F0FF80C8F3C04018B1204600F088
:1017100063F98146C8F3804020B1204600F0FCF810
:1017200040EA0909C8F3400010B1E16802204861AD
:10173000661C04F10C07DFF8A8545FEAD87012D0D9
:10174000707A28B1D4F80C01016889088900016019
:1017500000F0DBF8296889698847E1684FF00040AC
:10176000486149F00109C8F3C02090B300208DF80A
:10177000000004F5867A9AF806008DF800002046ED
:1017800029684969884778688068E2684FF4006191
:101790005161717AD9B1C00719D59AF809000128A9
:1017A00004BF9DF80000032811D1D4F80C01016892
:1017B00041F001010160D4F80C01016841F003011E
:1017C0000160DFF82004016841F00601016049F082
:1017D0000109C8F3C00040B120462968C96888479C
:1017E000E1680820486149F00109C8F3001098B386
:1017F000E068816921F0100181612822E068006AB7
:1018000000F00F0112FB014101F55D76410C01F082
:101810000F01C0F30A1A022908D0062915D108229F
:1018200004F2CC512046FEF7E9FC0BE00109490522
:101830000BD0C0F30A12F1682046FEF7DFFCF06817
:101840005044F060B0695044B06149F00109E0686B
:10185000816941F010018161C8F3003080B300F06C
:1018600054F80021FEF781FD0020FF2106E004EB83
:101870008002401C93699960526D91606278904239
:10188000F5D379684FF0FF3088614FF00110796827
:10189000C8610B20796848617968086178680168D7
:1018A00021F4FE6101602046FEF7E7FFE1684FF496
:1018B00080504861204629680969884749F0010934
:1018C000C8F3403020B1204600F01CF940EA090975
:1018D000C8F3005048B12968C96920468847E168C3
:1018E0004FF48010486149F00109C8F3405048B1F5
:1018F0002968096A20468847E1684FF4001048616A
:1019000049F001094846BDE8F6877868416849080A
:1019100049004160204670472DE9F8430446002500
:10192000FEF7A5FF5FEA0008DFF8B49252E05FEA35
:10193000C8704CD520690269436BE9B204EB81069B
:1019400023FA01F1B669B66801F0010142EAC1115A
:1019500001EA060704EB8506F90719D5416B012258
:10196000AA40914341630127B1698F60E9B2D9F878
:101970000020526820469047E078012808BF002DDB
:1019800006D194F81101042804BF2046FEF775FF24
:10199000C7F3C00010B1B16908278F60C7F300100A
:1019A00010B11027B1698F60C7F3801010B14027C4
:1019B000B1698F60C7F3400010B10227B1698F6031
:1019C000C7F3C01018B12946204600F058F86D1C26
:1019D0005FEA5808ABD14FE02DE9F84304460025F3
:1019E000FEF737FF5FEA0008DFF8F49143E05FEAB3
:1019F000C8703DD5E9B22046FEF731FF064604EB3C
:101A00008507F00723D5796D01268E60E0780128DF
:101A10000BD1786D0069282101FB05414003D1F805
:101A20007C23B2EB5030C1F88C03E9B2D9F8002026
:101A3000126820469047E078012808BF002D06D1A3
:101A400094F81101052804BF2046FEF716FFC6F3DF
:101A5000400010B1796D02268E60C6F3C00038B127
:101A60002046D9F8001089688847796D0820886079
:101A70006D1C5FEA5808BAD10120BDE8F2832DE958
:101A8000F84380468946282000FB098000F58E76C1
:101A90007069B169B568401A854288BF0546E81C7F
:101AA00008EB89078408B869806921E0B568401AA5
:101AB000854288BF0546E81C8408F168ABB25FFA2E
:101AC00089F24046FEF785FBF0682818F060B0699F
:101AD0002918B161B869806972698A4208D1D8F859
:101AE00010104A6B96F900500123AB409A434A63A9
:101AF00080B284423EBF7069B169814201D2002840
:101B0000D4D1B9E7F0B585B00446FEF737FD00A89B
:101B1000FEF74CFFE068019EC16821F47055C56076
:101B200045F410572046FEF71AFD032803D1002084
:101B30004FF400712EE02C4A2C4B012040219219C9
:101B40009A4238BF45F460553FD3294A294B921930
:101B50009A4238BF45F4505537D3274A274B92193C
:101B60009A4238BF45F440552FD3254A254B921948
:101B70009A4238BF45F4305527D3234A234B921954
:101B80009A4238BF45F420551FD3214A214B921960
:101B90009A4201D23D4618E01F4A204B92199A42C0
:101BA00038BF45F4005510D31D4A1E4B92199A4276
:101BB00038BF45F4E05508D31B4A1C4B92199A4292
:101BC00034BF45F4C05545F4A055A180A0704FF432
:101BD0000051E068C5604161012005B0F0BD000022
:101BE000DC02002010ED00E0401E1BFF40420F0011
:101BF00000DC0BFFE0C810002013FBFE20D6130012
:101C0000003DE7FE006A180000D3CEFE40771B00BF
:101C1000C05BB3FEC091210000CA91FE40AC27001A
:101C2000C01D6AFE40E13300803C36FEE09C41006E
:101C300000E000BF0146481E0029FAD1704738B5C0
:101C40000446DFF870540221284600F073FA002899
:101C5000F9D02146284600F06BFA0121284600F011
:101C600069FA0028F9D0284600F060FAC0B232BD07
:101C700038B50446DFF8405410212846FEF763FFCC
:101C80002046FFF7DCFFFF20FFF7D9FF04461021B5
:101C90002846FEF756FF204632BD70B504460D4675
:101CA000DFF8146410213046FEF74DFF44F0800049
:101CB000FFF7C5FF2846FFF7C2FF3046BDE870407A
:101CC0001021FEF73EBF00B585B00820039003A9A0
:101CD00003208DF8110000208DF8100001208DF8F0
:101CE0001300DFF8D403FEF7EDFE08200190012079
:101CF0008DF80A0000208DF808000C208DF80900EE
:101D000001A800F01FFA4FF4C060FEF731FF092070
:101D10008DF8000000208DF801008DF802000120F0
:101D20008DF8030000A8FEF728FF05B000BD10B530
:101D3000DFF8844388B010212046FEF702FF01201F
:101D40008DF8040000A900208DF8060001208DF810
:101D50000500102000902046FEF7B4FE04200090FD
:101D600000A9DFF85803FEF7ADFE01214FF48050C3
:101D7000FEF780FEE020009000A902208DF804000C
:101D800001208DF807008DF805002046FEF79AFE29
:101D9000052205212046FEF7D8FE05220621204611
:101DA000FEF7D3FE052207212046FEF7CEFEDFF820
:101DB00004430021204600F0AFF90020ADF80800F0
:101DC00002A94FF48270ADF80A000020ADF80C00B3
:101DD0000220ADF80E000120ADF810004FF40070A5
:101DE000ADF812001020ADF814000020ADF8160078
:101DF0000720ADF81800204600F072F901212046B6
:101E000000F08AF9FFF75FFF08B010BD38B5FFF7A3
:101E10008EFFAA4C04212046FEF793FEA84D2846CB
:101E2000FFF706FF04212046FEF78DFE2846FFF748
:101E3000FFFEA44C00F0FBF800F0FEF8607080217B
:101E40000720FFF72AFF00F0A9F8AA214020FFF79A
:101E500024FF4020FFF70CFF2070AA28F5D100F0E6
:101E6000E6F800F0E9F8607051217520FFF715FFE2
:101E70007D217620FFF711FF00217720FFF70DFF6E
:101E800000217920FFF709FF10217A20FFF705FFD5
:101E900041216E20FFF701FF89216F20FFF7FDFE32
:101EA0000C217020FFF7F9FEED215820FFF7F5FE19
:101EB000CD217220FFF7F1FE23217120FFF7EDFE07
:101EC0008C211C20FFF7E9FE2F212020FFF7E5FEE3
:101ED00002212120FFF7E1FEBB212220FFF7DDFEDA
:101EE0000D212320FFF7D9FE07212420FFF7D5FE7F
:101EF000FF212520FFF7D1FE40211D20FFF7CDFE59
:101F000002211E20FFF7C9FE50212A20FFF7C5FE3F
:101F100003211F20FFF7C1FE60216920FFF7BDFEEE
:101F2000AC213020FFF7B9FE8C213220FFF7B5FE3F
:101F300000213320FFF7B1FE08213420FFF7ADFE6A
:101F400022213520FFF7A9FE00213620FFF7A5FE4C
:101F500000213720FFF7A1FE12210B20FFF79DFE85
:101F600015210C20FFF799FE1E216D20FFF795FE2D
:101F700000F01CF800F017F800210620FFF78DFE96
:101F800000F055F800F058F8607000F00FF800F01D
:101F900050F8BDE83440102108207EE64A48006829
:101FA0000007FBD470470221052076E605210720B3
:101FB00073E670B5044644480068002500071AD44B
:101FC000404E09B1B078087000F031F8307000F080
:101FD00034F831787070890721D54B20FFF748FE1F
:101FE00005467F20FFF744FE854206D000F021F829
:101FF000102100F01FF8002070BD002604E07F20B3
:10200000FFF736FE3055761CF6B2AE42F7DB00F035
:1020100010F8102100F00EF8FFF7C8FF05E00006E9
:1020200003D52620FFF724FEB070284670BD03209C
:102030001EE61221082030E62070042018E6000079
:1020400070B5224D00212846FFF7B3FF204A85F8DE
:1020500000010021117007282AD128781D4E1E4C3E
:10206000000612D400F084F9A87900F02CF921467A
:102070002846FEF728FF3078002819BF707800281E
:102080000020E07100F088FA0EE014490120087089
:1020900004F108012846FEF716FFB078002819BFA2
:1020A000F07800280020E073BDE8704000F04EBAE0
:1020B00000BF70BD0030014000000240000402403B
:1020C00080969800ED4F002010000240EC4E00205A
:1020D000C651002000520020B45100207F50002043
:1020E00002880B8802F441521A434B881A438B88AA
:1020F0001A43CB881A430B891A434B891A438B899D
:102100001A43CB891A4302804FF2FF73828B1A4025
:102110008283098A018270470029018812BF41F039
:1021200040014FF6BF7211400180704780897047AF
:102130008181704700890022084218BF01221046A1
:102140007047000030B501688279CB43194932B33A
:102150000A4614682340136053680468A34353601D
:102160000379CC18236805682B43236093680468BF
:10217000A3439360D3680468A343D360437905689D
:10218000102B07D1916829439160D16800680843FA
:10219000D06030BD51FA83F42068284303E0007911
:1021A0000C1820681840206030BD00BF024908604C
:1021B00070470000003C0140143C014000B585B070
:1021C000012140F20110FEF74CFC4FF0FF3002906D
:1021D00001A90720ADF804000020ADF80C00ADF80F
:1021E00006004FF0804000F041FB01A98A4800F052
:1021F0003DFB4FF4C060FEF7BBFC00208DF80100F2
:1022000001208DF802008DF803001C208DF80000DD
:1022100000A8FEF7B2FC05B000BD10B584B00121E6
:102220000820FEF71EFC7D487D4C019000A9072088
:10223000ADF800000020ADF80800ADF802008DF800
:102240000A00204600F012FB7649204600F03FFBD2
:102250001FBD80B510217448FEF773FC7348C17828
:10226000827851EA02031CBF01234370417102715D
:1022700000218170C17001BDF8B5694C6C4D606A78
:102280002860012167486062204600F024FB28682E
:1022900068490E18A86868496E60FFF771F807462C
:1022A0003046FFF753F86549FFF76AF801463846AC
:1022B000FFF7D2F8A8606249FFF7CEF8FFF70EF9F2
:1022C000E860E062F1BD5F490A881346D2B29042ED
:1022D00004DA1A0A521C00EB022003E003F47F42E6
:1022E00052FA80F04A6802B9C0B2088041F28830E0
:1022F00048607047F8B500250FF27C164B4C36F855
:10230000150004EB8507FFF72BF84F49FFF738F866
:10231000FFF7E4F878636D1C0020B8600B2DEEDB4E
:10232000FFF74CFFFFF779FF002020704748A060BF
:102330000020E060464820614648606146482062CF
:102340004648E0614648606246482063F1BD10B5EA
:10235000314C0021204600F0BAFA0121204600F05D
:10236000E2FA2046BDE81040012100F0B4BA0000B6
:1023700038B510212C48FEF7E6FB72B600F076F86F
:1023800000F044F800F02FF8284DA96B00F500503C
:10239000D030884217D20121204600F0BDFA012832
:1023A00011D000F020F8012129702F4AA96B00F00C
:1023B00023F800F01BF800F011F8012100F057F8A5
:1023C0000120A87002E000BF0020287062B6FFE77D
:1023D0002046BDE83440012100F0A5BA00214FF0AD
:1023E000804000F074BA204600F073BA0122012147
:1023F0004FF0804000F088BA5118081A4FF0804121
:10240000C86201214FF0804000F08DBA024C0021DB
:10241000204600F060BA0000002000403057050060
:10242000000C004098AB0200000402407C500020E9
:10243000CC0200206854FDFF6666663FCDCCCC3DE3
:1024400000E6AA48F8510020390E734453220008D0
:1024500029110008B53D0008BD3D0008BD11000868
:1024600055100008E110000830DFFFFF00214FF099
:10247000804000F030BA000005000A000A00460063
:102480000A0050000A000A0046000A004B00000043
:10249000F0B5DFF8A8530F46E988ADF5037D144683
:1024A000FF290ADC07F10802531102EB9362921133
:1024B000561CF6B27118FF2901DD012043E00146E8
:1024C0003A460DF1060000F03DFA2B208DF8000091
:1024D0008DF80100ADF80270ADF804400020002135
:1024E00007E000AA8A18491C92F906201018C0B209
:1024F00089B2B942F5DB00A93944887100A9394491
:102500006FF04D00C87100A939440872E9886A78F3
:10251000002013E0002300AF07EB8017C84CDF5DFD
:1025200004EB82141F555B1C402BF4DB521CD2B20F
:10253000FF2A08BF0022401C491C80B2B042E9DBE0
:102540006A70E98000200DF5037DF0BD30B5BD480F
:10255000017890F901304A005B0652B21B16002A3E
:1025600048BF5242002B48BF5B42C909C1EBC104BE
:10257000B54D6155641940790009A07052B2002030
:10258000C4F80300782ABEBF5BB2782B01206070CC
:1025900049190120087430BD00B5AC48008883B0EB
:1025A00006228DF800000221000A8DF8010000A823
:1025B000FFF76EFF07BD80B5A5480321017000211C
:1025C000A44A00F036F80C29FAD3042231212CE079
:1025D00070B5C0B000F05AF850F8212000AB03EB02
:1025E0008103491C1A620C29F6D300F0E7F9F320A5
:1025F00000F04EFA0221302000F0F3F9002600F03E
:102600003FF8761C402EFADB00F0E4F900F07AFA8D
:1026100033E080B58E480521017000218E4A00F01C
:1026200008F80829FADB04222121FFF731FF0020F6
:1026300002BD52F8212000EB8103491CC3F80120A0
:10264000704770B5C0B000F021F850F8212045F86F
:102650002120491C0829F8DB00F0B0F9F32000F034
:1026600017FA0221302000F0BCF9002600F008F82B
:10267000761C402EFADB00F0ADF9002040B070BDB2
:1026800055F8261004EB860000F0DFB9401C00214D
:10269000714C00AD54F8212045F82120491C4029F7
:1026A000F8DB0021704780B56948072101700422DA
:1026B00001214170002181700321B6E770B5674C9C
:1026C00094F800320D463BB901782B2904BF4178BC
:1026D0002B2901D000BF5EE053FA85F1B1F5007FF0
:1026E00003DB002084F8000270BD01462A46181959
:1026F00000F028F994F80002291884F80012C9B2F1
:102700000A2948DBA01CA378457804F5007203EB86
:1027100005235380A1F1090352889A423BD109193C
:10272000CB1E5D78B22D04BF9B78B22B30D1002335
:10273000002505E0EDB22E196D1CB679F318DBB259
:10274000EEB29642F6D311F8031C8B4201BF81789A
:10275000C27801EB022103291AD10079032807D09E
:1027600016D305280BD006D307280FD00AD30FE0C5
:10277000FFF721FF0CE0A01DFFF72AFF08E0FFF79D
:1027800048FF05E0A01DFFF75CFF01E0FFF78BFFAE
:10279000002084F80002002070BD10B5274C20787E
:1027A00030B1E17804F10800FFF788FF00202070C5
:1027B000E08800281CBF2079002818D0284890F80D
:1027C0001211032913D1A3781D49402201EB831173
:1027D00000F011FBA17838B9E088491C401EC9B24D
:1027E000E080FF2908BF00210020A170207110BDEA
:1027F0001C48006841F28831B0FBF1F141F28832A7
:1028000002FB110000B1704738B5174C2068A0B129
:102810000D4D287C30B105220E212846FFF738FEE9
:1028200000202874687C30B105220E21E81DFFF7D6
:102830002FFE002068740020206031BDB40100200C
:10284000E4020020EC4E0020A0510020F8510020AE
:10285000EC4C00202000040800000408E84A002096
:10286000E4420020D0510020CC51002030B5048833
:102870001E4B244A984218BF90420BD0B0F1804FB3
:102880001CBF1B4DA84205D01A4DA8421CBF1A4DB3
:10289000A84204D14FF68F752C404D882C43174D1C
:1028A000A8421CBF164DA84204D04FF6FF452C404D
:1028B0000D892C43048098424C68C4620C880485BE
:1028C00012BF9042897A01860121818230BD416226
:1028D0007047406A70470029018812BF41F001012A
:1028E0004FF6FE7211400180704700000000014069
:1028F0000004004000080040000C004000100040B0
:102900000014004000040140002A828914BF1143D2
:1029100022EA010181817047008A0022084218BF23
:102920000122104670470AE0038A8089002208408D
:102930000B421CBF002801221046704700BFC9434C
:102940000182704762B38B0708D0521E11F8013B19
:1029500000F8013B00F024808B07F6D1830740F09C
:10296000208000BF103A07D330B4B1E83810103AD5
:10297000A0E83810F9D230BC530724BFB1E80810E2
:10298000A0E8081044BF51F8043B40F8043BD207CC
:1029900024BF31F8022B20F8022B44BF0B780370C0
:1029A0007047083A07D3B1E80810083A40F8043BEA
:1029B00040F804CBF7D25307E4E70000DFF810013A
:1029C000C168002905D5DFF80C110160DFF8081196
:1029D00001607047DFF80401016841F000410160C7
:1029E000704770B50446002651B1012908BF4FF465
:1029F000807605D002290CBF4FF400764FF4407664
:102A000000F070F809281FD1DFF8D050286820F4B2
:102A10004070286044F0020128683043286028682C
:102A200020F0F8002860286808432860286840F4EF
:102A30008030286000F056F8296821F002012960F2
:102A4000296821F0F801296070BD70B500F01DF80B
:102A500009280CD100F012F840F4007000F008F8DA
:102A6000256000F03FF8316849084900316070BDC9
:102A70003060306840F0010030607047174E3068B9
:102A800020F4407030603068704704460D4629E0FD
:102A900013490860704712490A680920D20301D51A
:102AA000012070470A68D20601D5062070470A68DF
:102AB000D20501D5022070470A6812F0E00F01D05C
:102AC000072070470968890748BF08207047000041
:102AD000043C024023016745AB89EFCD103C024026
:102AE0000C3C024080B509208DF80000FFF7D3FFB1
:102AF0008DF800009DF800000128F7D09DF8000037
:102B000002BD00006A4800F11C0100220A818A729D
:102B1000C2618A8000F0D6B92DE9F84F80460026C0
:102B20004FF0474BDFF88CA1DFF88C91634C644D7C
:102B300008EB4607B7F9060000F006FA22462B46D6
:102B400000F018FA00F0E8FA494600F02DFB98BFB3
:102B5000504604D9594600F039FB38BF584600F0BA
:102B600047FB761CF880032EE2DB002638F91600BE
:102B700000F0EAF922462B4600F0FCF900F0CCFA0E
:102B8000494600F011FB98BF504604D9594600F061
:102B90001DFB38BF584600F02BFB28F81600761CAA
:102BA000032EE3DBBDE8F18F38B5414C00283DD161
:102BB000201D00F033FC04F122020221362000F037
:102BC000E3FB40480068B4F90C1020604942B4F9B6
:102BD0000A0061814042A081B4F90E00B4F90610E8
:102BE0004042E0814942B4F90400A1804042E080C3
:102BF000B4F9080040422081201DFFF78DFF201D01
:102C000000F068F9304D2878B0B33049062204F15D
:102C10001C00FFF797FE00202870B4F91E00404208
:102C2000E083B4F920004042208431BD04F110005B
:102C300000F0F4FBB4F91600B4F9181040422083F8
:102C40004942B4F91A00E18240426083B4F91000AD
:102C5000B4F91210404260824942B4F91400218252
:102C60004042A08204F11000FFF756FF04F110006B
:102C7000BDE8324000F02EB931BD38B5144D0C4CD2
:102C8000287838B10020FFF78FFF12480088A08411
:102C900000202870104D287848B10120FFF784FFEC
:102CA000002228212046FFF7F3FB0020287031BDC9
:102CB0007851002000FEFF4601FEFF461E82BD9CAB
:102CC000EC79F13FD0510020C5510020F051002097
:102CD000C8510020B2510020C951002010B504464F
:102CE00003230222812100F0E1FB032302220121C0
:102CF000204600F0DBFB022340228221204600F028
:102D0000D5FB022340220221204600F0CFFB4023C6
:102D10005F4A0221204600F0F8FB002010BD10B5EC
:102D20000446812100F0DFFB0121204600F0DBFB9F
:102D30008221204600F0D7FB0221204600F0D3FB81
:102D4000002010BD38B50D7800220023514C15F03D
:102D500060052AD0202D4CD14A78022A12D0032AAD
:102D600008D0092A12D00A2A08D00B2A19D188784B
:102D7000E0603EE0012204F10C0138E04888000ADE
:102D8000206136E0012204F1100130E0012262608E
:102D90004A882270CA88D2B204F1140100F038FCCB
:102DA00027E000F023FE022032BD4D78062D06D02C
:102DB0000A2D19D00B2D04BF8878A06019E04D882A
:102DC0002D0A222D06D1CA88A62AA8BFA52204F161
:102DD0008C0307E0212D05D1CA8804F166030A2A75
:102DE000A8BF0922194602E0012204F1080100F0FF
:102DF000FEFB002032BD80B590F81231032B04D1C8
:102E000013460A46822100F098FB002002BD3720BD
:102E100008802148704710B50C46822100F0D3FB92
:102E2000022C02D11D4901200870002010BD38B5C8
:102E30000446184800F59A7501290AD100F11401D9
:102E400000F5BA720B7813704B7853700121417002
:102E50000EE0282212FB01411148D1F88C13114ACF
:102E6000017001211170294602780F48FFF76AFDB1
:102E700040232A460221204600F047FB002032BDB5
:102E800004484168012904BF0021416000207047C7
:102E9000340100200000002054000020B801002070
:102EA000B7010020B4010020BC01002010B5254C62
:102EB000202104F13C0000F0C9FD00202063606384
:102EC000A06310BD80B530211E4800F0BFFDBDE8F5
:102ED0000140EBE72DE9F04104460025DFF864806E
:102EE00034F9150008EB8507FEF730FAF968FEF7AC
:102EF00085FB396BFEF7B0FA06463E6300F078F9C1
:102F000024F8150000B2FEF721FA01463046FEF71C
:102F100075FB6D1C3863032DE2DB002504EB4507D0
:102F2000B7F90600FEF712FA08EB8501496AFEF7C9
:102F300065FB00F05DF9F8806D1C032DEEDB0020D1
:102F4000BDE8F081DC500020010040F10780F4462C
:102F5000404200F003F851F00041604709D0B0FA58
:102F600080F18840C91CC1F58461090501EBD021BD
:102F700040057047B0B581EA030C0CF0004C40F2FC
:102F8000FF7515EA11541DBF15EA1357AC42AF4245
:102F900039E0E41923EA455343F48013C90241F0B0
:102FA000004141EA505EC7021100A7FB020200285F
:102FB0004FF00000EEFB01204FF00001E3FB072182
:102FC00018BF42F00102401800214941E3FB0E0105
:102FD000A4F580640F0302D252004041494154F1EC
:102FE00001046CDD470872F1004250F1000051EB22
:102FF0000451A1F580115CBF41EA0C01B0BD4CEA5F
:1030000005510020B0BD05EA1357AC4214BFAF42D2
:1030100041E050EA410E1CBF52EA430E02E0614615
:103020000020B0BD24423C441BD15FEA070EF6D01D
:10303000090302BF01460020AEF1140EB1FA81F778
:10304000AEEB070401FA07FE0C37C7F1200100FAC6
:1030500007F7C8404EEA000E23EA455343F48013B5
:10306000A2E733F00043B3FA83F704BFB2FA82FE5B
:1030700077440B3FE41BB7F1200E2FBF02FA0EF38B
:10308000BB40C7F1200E22FA0EFE38BF43EA0E0302
:10309000BA40641C82E750EA410E14BF52EA430E64
:1030A0006FF000014FF4001717EB430F8ABF19466A
:1030B00017EB410FB5E74CEA05510020B0BDD4F144
:1030C0000104B4F120070FDAC4F12007520828BF29
:1030D00042F0010210FA07F501FA07F7E1BF2A43AF
:1030E000E0403843E1400FE0352C98DCC7F1200484
:1030F00052EA400220FA07F218BF42F0010231FA08
:1031000007F0A1400A43002172F1004250F1000093
:1031100051EB0C01B0BD00004FEAF17CBCF1E04C7A
:103120002CBFBCF5001F11E05FEA4C0C34BFBCF1B2
:103130007F5F2EE05FEA9C0C4FEA0C1C4FEA3C0CD0
:10314000C10071F100414CEB50707047C90241EA77
:103150005051C00218BF41F0010141F000414FEA57
:103160006C50C0F10900212810D240EACC7CCCF18F
:10317000200C11FA0CF070F10040CCF1200C21FA77
:103180000CF00CF0004C40EB0C0070474FEACC7098
:103190007047490011F5001F04D84FEACC10FF30EA
:1031A000C0057047C81770474FF0807C1CEB400F7C
:1031B00094BF1CEB410F05E040EA010C5FEA4C0CA8
:1031C00001D28142704718BF884270474FF0807C1F
:1031D0001CEB400F94BF1CEB410F05E040EA010CD3
:1031E0005FEA4C0C01D28842704718BF8142704799
:1031F0004100090E7F3915D4D1F11F0114D44000CC
:1032000007D2C00140F00040C84048BF6FF0004006
:103210007047C00140F00040C8404CBF4FF0004034
:10322000404270470020704700424FF0004058BFB6
:10323000C0437047002800E0401EFDD1704738B5FC
:103240000446624D02212846FEF774FF0028F9D09B
:1032500021462846FEF76CFF01212846FEF76AFF4B
:103260000028F9D02846FEF761FFC0B232BD80B514
:1032700000F021F8FF213F2000F0B0F800212220CB
:1032800000F0ACF87F21002000F0A8F80321162000
:1032900000F0A4F80321022000F0A0F80721042088
:1032A00000F09CF80121052000F098F8BDE80440EA
:1032B000FF213F2092E010B588B001214FF400407B
:1032C000FDF7CFFB424C4FF400412046FDF739FC9F
:1032D0004FF40040009000A901208DF80400002068
:1032E0008DF8060003208DF805002046FDF7EAFB67
:1032F0004FF4E050009002208DF8040001208DF87A
:10330000070003208DF8050000A9324C2046FDF788
:10331000D9FB06220A212046FDF717FC06220B21C5
:103320002046FDF712FC06220C212046FDF70DFC7D
:10333000264C00212046FEF7EFFE0020ADF80800E5
:1033400002A94FF48270ADF80A000020ADF80C001D
:103350000220ADF80E000120ADF810004FF400700F
:10336000ADF812001020ADF814000020ADF81600E2
:103370000720ADF818002046FEF7B2FE01212046D6
:10338000FEF7CAFE08B010BDF8B504460D46104F52
:1033900016464FF400413846FDF7D5FB00F01CF807
:1033A00044F08000FFF74BFF05E00020FFF747FFE8
:1033B00006F8010B6D1EEDB2002DF6D100F00CF8F1
:1033C0003846BDE8F44025E000000000003C004025
:1033D00000000240000802400A202BE770B50446B6
:1033E0000D46014E02E000BF000002404FF40041D4
:1033F0003046FDF7A8FBFFF7EFFF2046FFF71FFF62
:10340000FFF7EAFF2846FFF71AFFFFF7E5FF304610
:10341000BDE870404FF40041FDF793BB02460C211C
:103420002420B1E710B50446FCF7FAFE012084F829
:1034300012010022002084F8140128200AE000FB79
:10344000024101F58E7101234B700A70CA8000237E
:1034500000F024F861788A42F1D3002209E000FBF1
:10346000024101F55D7100234B700A70CA8000F0C3
:1034700015F861788A42F2D32046FCF76FFF2046A8
:10348000FCF72CFF00212046FCF7A3FF2046FCF7A9
:10349000CFFF2046BDE81040FCF75BBFCB70521C4D
:1034A00040238B600023CB604B61704738B500F040
:1034B0003EF80D064CBF04F58E7404F55D7401F002
:1034C0007F052570C9096170A260E370617809B158
:1034D0002178E180022B04BF002121712146FDF7F4
:1034E00060F8002032BD80B501F07F02282313FB75
:1034F00002020B064CBF02F58E7202F55D7200F0FF
:1035000041F8FDF77FF8002002BD38B500F00FF854
:1035100004F55D7401F07F01E26063610023A36143
:1035200063702170C178012908BF226114E001F0A5
:103530007F04282515FB0404704738B5FFF7F7FF13
:1035400004F58E740125657001F07F012170E26041
:1035500022610021A161636121780029214602D105
:10356000FDF7FAF801E0FDF763F8002032BD10B571
:1035700000F019F8012300F004F8FDF742F90020EB
:1035800010BD937001F07F031370C909517011468B
:10359000704710B500F007F80023FFF7F2FFFDF7C2
:1035A00044F9002010BD28230A460C0606D502F077
:1035B0007F0213FB020202F58E72704713FB0202B8
:1035C00002F55D72704780B50A0604D501F07F01EF
:1035D000FCF7CBFE01E0FCF7DFFE002002BD006936
:1035E0000268090101F4FE6111430160704780B572
:1035F000C0F83C21C0F83821022380F8113100E0E6
:1036000080B513460A460021FFF797FF002002BD50
:1036100080B5C0F89423C0F89023032380F81131BB
:1036200000E080B513460A460021FFF76EFF002038
:1036300002BD10B50446042000F00FF8FFF77DFF2F
:1036400006E010B50446052000F007F8FFF75DFF1F
:103650002046FDF712F9002010BD84F81101002268
:10366000002311462046704770B504464878974EAF
:1036700004F58875092824D8DFE800F060992370E4
:10368000230905235126204600F02CF9A0E0888864
:10369000002804BFC888002813D1887800F07F066E
:1036A000A87803280DD02E7131462046FFF797FFEA
:1036B0002046FFF7BEFF002E14BF02200120A87095
:1036C00086E000F073F983E0488830703078022893
:1036D000F7DAAA78022A17D0032AF2D148B90220D1
:1036E000A8700021002084F81001204600F0D3FAD1
:1036F0006BE094F810118842204667D000F0CBFAB6
:10370000317884F8101106E000285ED084F81001AA
:103710000321A9700146204600F0B1FA55E0C8889F
:103720000128CED1A878022804D00328C9D10122CB
:1037300029460FE0012206F108010BE0A878801E5F
:103740000128BED801207060A86808B1032070600D
:103750000222311D2046FFF74AFF39E04888012840
:103760002DD0022802BF8888C1B2002930D121693A
:103770004968000A21F0700102280ED010D30428F5
:1037800005D007D305280BD141F050000AE041F0E5
:10379000400007E041F0300004E041F0200001E08B
:1037A00041F010004A4908600120A8710DE0A87896
:1037B000801E012885D84888012809D10020A860EA
:1037C0002046D4F8E425926890472046FFF731FF61
:1037D000002070BD38B504460D4694F81201032848
:1037E0000DD1287902280ADAD4F8E4259268204617
:1037F0009047E88828B92046FFF71BFF01E000F05A
:10380000D5F8002032BD38B50D4604462878297910
:1038100000F06000202802D100F05EF853E06878E4
:1038200040B3012810D003284DD194F8120102288A
:1038300027D0032845D1688828B900291EBF8029D0
:103840002046FFF794FE0FE094F81201022818D0EA
:10385000032836D16888002835D1002918BF80296F
:1038600004D02046FFF795FE00F036F82046FFF71B
:10387000E0FE28E094F81201022802D0032808D0C4
:103880001FE0002918BF80291DD02046FFF76FFEDA
:1038900019E028220F480B0606D501F07F0112FB24
:1038A000014191F81E2103E012FB014191F87623BA
:1038B00002B101220260014602222046FFF797FE74
:1038C00001E000F072F8002032BD0000E451002059
:1038D000085200200C520020D4F8E42592682946B2
:1038E0002046104770B50D4682B00446E888ADF812
:1038F000000004F2E4566888010A012904D051D37B
:10390000032923D018D34DE0B268A078126800A92B
:103910009047BDF8001000291CBFE98800290AD093
:10392000BDF800208A4288BF0A460146ADF8002053
:103930002046FFF75CFE73BDD4F8E425A078926AB8
:1039400000A9904702214170F060E2E7C0B205286B
:1039500028D8DFE800F003090F151B21B268A07812
:10396000526800A99047D4E7B268A078926800A98D
:103970009047CEE7B268A078D26800A99047C8E720
:10398000B268A078126900A99047C2E7B268A0782F
:10399000526900A99047BCE7B268A078926900A973
:1039A0009047B6E700F001F873BD294620461DE0B8
:1039B00010B590F8CC250A7000F2CC5253784B70B9
:1039C000D478937803EB04234B805479137903EB79
:1039D00004238B809379D27903EB0222CA80C988B1
:1039E000C0F84011012180F8111110BD10B5044636
:1039F0008021FFF7BCFD00212046FFF7B8FD2046DF
:103A0000BDE81040FCF739BF00B9704730B5034638
:103A1000002400E0641C13F8015B002DFAD1240699
:103A2000E30D9B1C138012880A7003224A70022245
:103A300008E010F8013BD2B25354521CD2B200231A
:103A40005354521C0378002BF3D130BD002200F0F8
:103A500037B90000F8B504460D4616461F46FCF778
:103A600037FFC4F8E47504F2E45706987860BE6046
:103A700029462046FFF7D6FC786800688047204634
:103A8000BDE8F240FCF756BF1CB5044600A9FFF79D
:103A90008FFF9DF8000010F01F0003D002280BD00C
:103AA00005D30EE000A92046FFF7DEFD10E000A9D7
:103AB0002046FFF78FFE0BE000A92046FFF7A3FE8C
:103AC00006E09DF8000000F080012046FFF74FFD62
:103AD000002016BD10B5044604F2111041BB94F845
:103AE000112104F55D71032A2CD1CB698A689A42B1
:103AF00010D2981AC861E378012B02D1CB68D31891
:103B0000CB60904238BF024692B2C9682046FFF7A8
:103B100088FD17E0D4F8E42511690A0004D0407844
:103B2000032804BF204688472046FFF782FD09E0AE
:103B3000D4F8E4259269130004D04078032804BF28
:103B400020469047002010BD70B5044604F21115C0
:103B5000002949D194F8110104F58E76022839D153
:103B6000F069B168814210D2421AF261E07801280E
:103B700002D1F0680818F06092B2F1682046FFF7B1
:103B80003FFD00220023114613E0306AB0FBF1F242
:103B900001FB12028AB988420FD3716A88420CD2A3
:103BA00000212046FFF72CFD002070620023024612
:103BB00001462046FFF7A9FC0CE0D4F8E405C168F3
:103BC000080004D06878032804BF204688472046B0
:103BD000FFF737FD6879012810D10948006821698D
:103BE00048600020687109E0D4F8E40542691000DB
:103BF00004D06878032804BF20469047002070BD99
:103C00000852002010B50446002340220021FFF78F
:103C10004DFC0023402280212046FFF747FC012075
:103C200084F81201D4F8E815A07849688847002084
:103C300010BD10B50446D4F8E8050069804794F833
:103C4000130184F81201032084F81201002010BD32
:103C500080B590F8121180F81311042180F8121128
:103C6000D0F8E805C0688047002002BD80B5D0F8D4
:103C7000E415C9690A0018BF8847002002BD10B5C5
:103C80000446D4F8E42512689047D4F8E805806823
:103C90008047002010BD80B5D0F8E42552689047D9
:103CA000002002BD80B5D0F8E415096A88470020DD
:103CB00002BD80B5D0F8E415496A8847002002BDEE
:103CC00000B500BF130096469446103928BFA0E8FF
:103CD0000C50FAD85FEA417C28BF0CC048BF40F8BE
:103CE000042BC90728BF20F8022B48BF00F8012B7E
:103CF00000BD000010B59F4C0121204600F0E4F902
:103D00009D49204600F010FA0028F9D0002010BD8F
:103D100010B59A4A974C1070517000F046F8002880
:103D2000FBD10121964800F0AFFAFFF7E3FF002234
:103D30003C21204600F0DCF99249204600F0F4F9DD
:103D40000028F9D0002010BD0000000080B514212B
:103D50000020FFF7DDFF00BF60210120FFF7D8FF43
:103D600000BF01210220FFF7D3FF00BF002002BDEA
:103D700010B5804C00F019F80028FBD182480121D1
:103D800000F082FA0121204600F0BAF9FFF7B2FFF5
:103D900001223D21204600F0ABF97C49204600F08D
:103DA000C3F90028F9D0002010BD4FF4003120469F
:103DB00000F0C7B976490120887070477449012026
:103DC000C870704710B5724CA078012808D12078CF
:103DD00030B101206070FFF7CBFF00202070A07091
:103DE000E078012808D1607001210220FFF790FFE0
:103DF000012020700020E07010BD30B504460D4653
:103E000091B001214FF40010FCF710FE4FF06060FC
:103E1000019003955F480290002006904FF4806067
:103E200007900020089009900A904FF440300B90C2
:103E300004200C9003200D9000200E900F90012C78
:103E400014D10490062005904F4C204600F094F9C0
:103E500001A9204600F0F0F92F2000F024F80020FE
:103E60008DF8020001208DF8030012E0CCB940204B
:103E7000049002200590424C204600F07DF901A9F3
:103E8000204600F0D9F90E2000F00DF801208DF841
:103E9000020000A8FCF771FE01221021204600F06C
:103EA0001AFA11B030BD8DF8000002208DF8010023
:103EB000704710B586B001210220FCF7B7FD012143
:103EC0004FF48000FCF7CDFD334C04220A2120463C
:103ED000FCF73BFE04220B212046FCF736FE4FF494
:103EE0004060009000A902208DF805008DF80400C4
:103EF00001208DF8060000208DF807002046FCF711
:103F0000E1FD1E4C21460020FFF777FF211D012017
:103F1000FFF773FF00F029F80020ADF80C00012135
:103F20004BF6FF70ADF80E003020ADF810004FF4E6
:103F30008060ADF812004FF48040ADF8140049F6EF
:103F400040400290204600F0B5F802A9204600F05B
:103F50004EF80121204600F0D3F80121204600F060
:103F6000D9F8FFF7F3FE06B010BD024C204600F072
:103F700015B800000058004001000300D85100208F
:103F8000B86002408200070058600240020003004F
:103F900004520020105800400004024080B54049FF
:103FA000884208D101214FF40010FCF76CFD00217C
:103FB0004FF4001016E03B49884208D101214FF42C
:103FC0008000FCF760FD00214FF480000AE03649D4
:103FD00088420BD101214FF40000FCF754FD002171
:103FE0004FF40000BDE80440FCF74DBD01BD7FB5B6
:103FF00004460D46A68800A8FCF7D8FC02992B4879
:104000004FF6C072B1FBF0F032400243A2804FF68F
:10401000FE7322881A402280254B2A689A4208D2D1
:104020005200B1FBF2F18AB2042AB8BF042189B26E
:1040300020E0EB884BF6FF76B34204D102EB42025C
:10404000B1FBF2F106E019235A43B1FBF2F141F45E
:10405000804189B20A0504BF41F0010189B280B2F2
:104060004FF49672504341F400414FF47A7289B292
:1040700090FBF2F0401C2084A1834FF6F53120889C
:1040800040F00100208020880840A9880843698901
:10409000084320802989A889084320817FBD00002A
:1040A0000054004000580040005C004040420F00B7
:1040B000A18601000029018812BF41F001014FF6DD
:1040C000FE721140018070470029018812BF41F43F
:1040D00080714FF6FF62114001807047002901880E
:1040E00012BF41F400714FF6FF521140018070473A
:1040F000002A14BF41F0010101F0FE010182704766
:104100000029018812BF41F480614FF6FF3211404F
:10411000018070470029818812BF41F400614FF28D
:10412000FF72114081807047838A008B43EA004010
:10413000084000020022000A884208BF01221046FF
:10414000704782B0024600200190009000920A0F52
:1041500001920902019A090A12B1009A143202E08E
:10416000009A090C18320092009A12680A4218BF8D
:10417000012002B070470000F0B50168614A4908AB
:10418000490001600021016041608160C1600161FE
:104190002121416190425C4926D05C4B4FF474620E
:1041A000984228D05A4C4FF47413A04228D0594D4D
:1041B0004FF07464A84228D0574E584DB04229D0D1
:1041C000574F584EB8422AD0DFF85CC1574F604570
:1041D0002AD0DFF85CE14FF03D5C704529D0DFF874
:1041E00054E15549704502D13D200860F0BDDFF82B
:1041F0004CE1704501D10A60F0BD514A904201D1B5
:104200000B60F0BD4F4A904201D10C60F0BD4E4AA8
:10421000904201D14D60F0BD4C4A904201D14E60B8
:10422000F0BD4B4A904201D14F60F0BD494A9042E7
:1042300001D1C1F804C0F0BD10B50268464B1A4068
:104240000B681A43CB681A434B691A438B691A43AC
:10425000CB691A430B6A1A434B6A1A438B6A1A4397
:104260004B6B1A438B6B1A43026042690B6BCC6A2F
:10427000D208234343EAC20242610A6942604A68A3
:1042800082608968C16010BD0029016812BF41F0D9
:10429000010149084900016070470022254B9842FE
:1042A00034BF2E482E488B004CBF40680068084041
:1042B0002C49084218BF0122104670471D4A9042FF
:1042C00034BF26482648274A0A40890001D5C260E3
:1042D0007047826070470B0607D54369002A14BFF8
:1042E00043F0800323F080034361802908D0002A33
:1042F000026801F01E0114BF114322EA01010160AE
:1043000070470000106002400860024028600240D0
:104310004060024058600240706002403D00002052
:1043200088600240400F0020A060024000003D2055
:10433000B8600240106402400864024028640240F1
:104340004064024058640240706402408864024045
:10435000A0640240B86402403F801CF0006002404C
:10436000006402407D0F7D0F6C488168CA0747BF1B
:104370000122027001224270491C4260816002D118
:10438000C268521CC260664A13680BB15B1E1360A0
:10439000890AC2788A4202D0C170012181707047B7
:1043A0007047FEE7FEE7FEE7FEE77047704770479D
:1043B00080B55C480078002818BF012804D1FDF7BB
:1043C000C6FFFDF759FF03E0062808BFFDF7BFFF52
:1043D0000820FDF7EAFE54490120087001BD70472E
:1043E000F8B501214FF08040FEF79EFA00283FD03B
:1043F0004C4D4E482C784E494E4B4FF080429CB16C
:10440000641C0B2694FBF6F60B2707FB16442C7056
:104410002C7853F824305B1ED3620C7050F82400C3
:10442000010019D0804717E0434C267886B15B68BD
:1044300001262E705B1ED3620E704068010018BF0B
:104440008047002020703D480188491C018003E01E
:1044500000211046FEF73FFA01214FF08040FEF7A1
:104460006DFABDE8F44001214FF08040FEF75BBAE1
:10447000F1BD3348FDF736B910B5324C324920460C
:10448000FFF70BFFC0B100212046FFF7FDFE4FF004
:1044900020512046FFF712FF2C4C2D492046FFF7F4
:1044A00050FE0028F9D001212046FFF717FEA08A10
:1044B000208B28490020087010BD10B5264C2749D4
:1044C0002046FFF7EAFE38B300212046FFF7DCFE66
:1044D0004FF0C0512046FFF7F1FE1C4C0021204652
:1044E000FFF70EFE01212046FFF7F8FD1C491D488D
:1044F0000A7842704A7802708A78C270CA788270EC
:104500000A79497942710171A08A208B11490020F2
:10451000087001201449087010BD0000C851002027
:10452000FC5100207C500020C65100208450002007
:10453000C7510020B05000207D500020F8510020CD
:10454000E4420020B860024000800028005800408B
:10455000040000100552002058600240008000183E
:10456000DC510020F0510020C551002080B5012110
:104570007F20FCF75BFA4948494B4A4A00900121E9
:104580004948FFF767FA494849494A4A4160F021DA
:1045900011700021816007210160FEF768FEFFF7BE
:1045A00088FCFCF7DEFBFEF7ADFA00F09BF8FDF7A8
:1045B000A1FEBDE80140FDF729BC2DE9F843FFF756
:1045C000D5FF3D4C3D4DDFF8F8803E4F3E4EDFF8C5
:1045D000FC90FEF7E2F8FCF72EFC99F8000018B901
:1045E0003B480068000701D4FDF72AFD307878B118
:1045F000B878842111FB0080843839468422FEF784
:10460000A1F9B9784919012001F8010C0020307096
:10461000E07901281BD1287800281CBF6878002881
:1046200015D00020FCF780FC98F8030000F052F849
:104630004046FDF72DFF98F8870000F04BF808F191
:104640008400FDF725FF0020E07128706870E07B92
:1046500001281CD1A87800281CBFE878002816D0B3
:104660000120FCF761FC98F80B0100F033F808F525
:104670008470FDF70DFF98F88F0100F02BF808F516
:10468000C670FDF705FF0020E073A870E870FEF724
:10469000F4FAFFF797FBFEF7ABF89AE78C020020DD
:1046A0002802002054020020E442002010E000E034
:1046B0003F90020023ED00E0B451002000520020A2
:1046C000D8480020F04F00207A500020C65100202A
:1046D000100002408000C0F18000C0F1840101227E
:1046E00089B2704700B583B03020009000A9012046
:1046F0008DF8040000208DF8060003208DF80500D9
:1047000001208DF807000248FCF7DCF907BD00BF67
:1047100000040240122008801D48704704200880D1
:104720001C48704710B51C4C0A46002821460CBF97
:104730000FF29C000FF2B00020E010B5164C0FF203
:10474000B40019E038B51A200880144D14484468A4
:1047500001688068401809D00822A91C00F022F8DE
:10476000042205F11201204600F01CF8284632BD53
:1047700010B5094C0FF288000A462146FFF744F9AC
:10478000204610BD10B5044C0FF28000F4E7000085
:10479000A8020020E0020020385100207002002012
:1047A000107AFF1F30B5002308E001F8134001EB39
:1047B000430500245B1C00016C70DBB2934205DAF8
:1047C000040F0A2C34BF30343734EEE730BD00001C
:1047D000437573746F6D2048494420696E204853B7
:1047E000204D6F646500000048522D4D4B312D481F
:1047F0004D440000487970657265616C00000000EE
:1048000048494420436F6E66696700004849442068
:10481000496E746572666163650000003048314A14
:1048200082B0016841F001010160002181600168EE
:10483000114001602C494160016821F48021016030
:104840000021C16001910091016841F48031016053
:10485000016801F4003100910199491C019100990E
:1048600019B90199B1F5A04FF2D10168490C01F0D5
:1048700001010091009901292CD1016C41F0805176
:1048800001641A490A6842F440420A608168816002
:10489000816841F400418160816841F4A0518160E8
:1048A00013494160016841F080710160016889012C
:1048B000FCD540F205710F4A1160816889088900B2
:1048C0008160816841F002018160816801F00C0122
:1048D0000829FAD14FF000600749086002B070471C
:1048E00000380240FFFFF6FE103000240070004048
:1048F0000C544007003C024008ED00E0816807E0EE
:1049000002681168536889185B18C3600832026036
:10491000C2689142F4D04A1C8260087870472DE941
:10492000FF4D00F10801009100270268520801EBD9
:10493000C2010191B8460021029103910168490822
:1049400000EBC101406800F0010501F108044008D6
:1049500004EBC00631E000A8FFF7D0FF4FFA80FA61
:104960000AE0009801680818009902904968081840
:104970000390009808300090029803998842F0D084
:10498000401C029010F801BD47450CD1B44208BF4D
:1049900000F01DF8276805B14F44606800EB070878
:1049A00008344745F2D007F801BBBAF1000F0AD529
:1049B0001AF1010AE8D14745CDD1B442CBD13046F6
:1049C00004B0BDE8F08DBAF1010AD5D5F3E70120B6
:1049D00000F000B880B5C046C046024A1100182059
:1049E000ABBEFBE72600020010B507497944183139
:1049F000064C7C44163404E00A68081D51188847A8
:104A00000146A142F8D110BD0800000030000000AE
:104A10006BBFFFFF2C4F0000E402002000000000ED
:104A2000FFFEFFFF02000000020000009C010000EA
:104A30009F01000000000020E402000000F00BF8DD
:104A4000002801D0FFF7D0FF0020C046C046FFF786
:104A5000B4FD00F002F80120704700F001B800003A
:104A600007463846FFF7B6FFFBE7000001488047DE
:104A7000014800471D4800088D4A000800BF7047E4
:104A8000704770477047704770477047C046C046D0
:104A9000C046C046FFF7D2FFFFF7FEBFFFF7FEBFDD
:104AA000FFF7FEBFFFF7FEBFFFF7FEBFFFF7FEBF3A
:104AB000FFF7FEBFFFF7FEBFFFF7FEBFFFF7FEBF2A
:104AC000FFF7FEBFFFF7FEBFFFF7FEBFFFF7FEBF1A
:104AD000FFF7FEBFFFF7FEBFFFF7FEBFFFF7FEBF0A
:104AE000FFF7FEBFFFF7FEBFFFF7FEBFFFF7FEBFFA
:104AF000FFF7FEBFFFF7FEBFFFF7FEBFFFF7FEBFEA
:104B0000FFF7FEBFFFF7FEBFFFF7FEBFFFF7FEBFD9
:104B1000FFF7FEBFFFF7FEBFFFF7FEBFFFF7FEBFC9
:104B2000FFF7FEBFFFF7FEBFFFF7FEBFFFF7FEBFB9
:104B3000FFF7FEBFFFF7FEBFFFF7FEBFFFF7FEBFA9
:104B4000FFF7FEBFFFF7FEBFFFF7FEBFFFF7FEBF99
:104B5000FFF7FEBFFFF7FEBFFFF7FEBFFFF7FEBF89
:104B6000FFF7FEBFFFF7FEBFFFF7FEBFFFF7FEBF79
:104B7000FFF7FEBFFFF7FEBFFFF7FEBFFFF7FEBF69
:104B8000FFF7FEBFFFF7FEBFFFF7FEBFFFF7FEBF59
:104B9000FFF7FEBFFFF7FEBFFFF7FEBFFFF7FEBF49
:104BA000FFF7FEBFFFF7FEBFFFF7FEBFFFF7FEBF39
:104BB000FFF7FEBFFFF7FEBFFFF7FEBFFFF7FEBF29
:104BC000FFF7FEBFFFF7FEBFAC000D090237000183
:104BD0000100C0320904000004FC00220921110177
:104BE000000122A50007058103020020070501033B
:104BF000020020070582024000000705020240FD76
:104C0000007E06FF000901A10185010901150025AB
:104C10000175089501B1828501090191828502091A
:104C2000021500250175089501B1828502090291DE
:104C300082850309031500250175089501B1828558
:104C4000030903918285040904150025017508955F
:104C500001B18285040904918285050905150025A5
:104C6000017501818209057501B18275078183850E
:104C7000057507B1838506090615002501750181B3
:104C8000822509067501B18275078183850675073E
:104C9000B18385070907150026FF00750895018176
:104CA0008285070907B182C08100F8000001BD00BC
:104CB00023D53A0008493B0008893A00086D3C00BA
:104CC00008053C0008513C0008333C0008A53C00A6
:104CD00008B33C0008F8000BDD2C00081F2D00086D
:104CE000452D0008FC000B812E0008172E00082F10
:104CF0002E0008F400210F2E0008154700081D475C
:104D000000083B4700082547000845470008714751
:104D10000008854700081A03E6002D7D4A00088137
:104D20004A0008834A0008894A00088B4A0008851F
:104D30004A0008874A000812010002FF0000408470
:104D4000045157000201020301FA000B010203049F
:104D50000102030406070809F4000B30570500FCA4
:074D60000100200403090417
:0400000508004A8D18
:00000001FF
